:020000040800F2
:1000000000500020F53B0008D13A0008D33A000820
:1000100000000000000000000000000000000000E0
:10002000000000000000000000000000D53A0008B9
:100030000000000000000000D73A0008D93A00088C
:10004000453C0008453C0008E13A0008453C0008F2
:10005000F13A0008F33A0008453C0008033B000869
:10006000453C0008193B0008293B0008453C0008B6
:10007000413B0008453C0008513B0008453C000856
:10008000453C0008453C0008453C000800000000D5
:10009000453C0008453C0008453C0008453C00083C
:1000A000453C0008453C0008453C0008693B000809
:1000B000793B0008893B000800000000453C00082F
:1000C00010B5064C2378002B07D1054B002B02D02E
:1000D000044800E000BF0123237010BD040000208D
:1000E00000000000B03C0008044B10B5002B03D00A
:1000F0000349044800E000BF10BDC04600000000F6
:1001000008000020B03C000802B4714649084900CC
:10011000095C49008E4402BC7047C04603B4714676
:10012000490840004900095E49008E4403BC7047FD
:10013000002243088B4274D303098B425FD3030A26
:100140008B4244D3030B8B4228D3030C8B420DD339
:10015000FF22090212BA030C8B4202D312120902C7
:1001600065D0030B8B4219D300E0090AC30B8B4205
:1001700001D3CB03C01A5241830B8B4201D38B03B3
:10018000C01A5241430B8B4201D34B03C01A524158
:10019000030B8B4201D30B03C01A5241C30A8B429B
:1001A00001D3CB02C01A5241830A8B4201D38B0286
:1001B000C01A5241430A8B4201D34B02C01A52412A
:1001C000030A8B4201D30B02C01A5241CDD2C3099C
:1001D0008B4201D3CB01C01A524183098B4201D318
:1001E0008B01C01A524143098B4201D34B01C01A03
:1001F000524103098B4201D30B01C01A5241C3087B
:100200008B4201D3CB00C01A524183088B4201D3E9
:100210008B00C01A524143088B4201D34B00C01AD5
:100220005241411A00D20146524110467047FFE741
:1002300001B5002000F006F802BDC0460029F7D045
:1002400076E770477047C046002B11D1002A0FD1C6
:10025000002900D1002802D00021C943081C07B49E
:10026000024802A14018029003BDC046D9FFFFFF1B
:1002700003B4684601B5029800F006F8019B9E465B
:1002800002B00CBC7047C046F0B557464E464546D6
:10029000DE46E0B5040083B00D00924699468B42DD
:1002A0002FD82CD04946504600F0AEF82900060061
:1002B000200000F0A9F8331A9846203B9B4600D551
:1002C00074E053465A4693401F00534642469340BB
:1002D0001E00AF4229D826D05B46A41BBD41002B8F
:1002E00000DA79E0002200230092019301235A46AC
:1002F00093400193012342469340009319E08242C8
:10030000D0D900220023009201930C9B002B01D036
:100310001C605D600098019903B03CBC9046994612
:10032000A246AB46F0BDA342D6D9002200230092DC
:1003300001934346002BE8D0FB0772081A43464658
:100340007B080EE0AB4201D1A2420CD8A41A9D4119
:10035000012024196D410021013E24184D41002E39
:1003600006D0AB42EED9013E24196D41002EF8D1E2
:100370005B460098019900196941002B22DB2B0094
:100380005A46D3402A004446E2401C005B46150012
:10039000002B2CDB26009E40330026004746BE4043
:1003A0003200801A994100900191AEE74246202325
:1003B0009B1A5246DA40414613004A468A401700CB
:1003C0001F4382E7424620239B1A2A0046469A4052
:1003D0002300F3401343D5E74246202300219B1A14
:1003E0000022009101920122DA40019282E7424606
:1003F000202326009B1ADE402F00B4469740664615
:100400003B003343C9E7C04610B5002903D100F0D3
:1004100007F8203002E0081C00F002F810BDC046CA
:100420001C2101231B04984201D3000C10391B0A24
:10043000984201D3000A08391B09984201D30009E8
:10044000043902A2105C40187047C046040302023F
:10045000010101010000000000000000FA210A4B28
:1004600070B5890005001868FFF762FE00F0D8FB40
:1004700004000120002C05D102382200290000F0E0
:1004800083FB200070BDC046000000200223084A04
:1004900010B5116800200B431360FFF7DFFF041E47
:1004A00003D103F061F9200010BD0124FBE7C04631
:1004B00000200240024A1368013313607047C046AF
:1004C0008C000020014B18687047C0468C0000204B
:1004D00070B50400FFF7F6FF631C5A1E9341050038
:1004E000E418FFF7EFFF401B8442FAD870BD00000C
:1004F000084B13B5040008491868FFF719FE444378
:100500000194019B002B00D113BD019B013B019382
:10051000F7E7C0460000002040420F00F7B5040096
:100520000120002C00D1D1E0694B22689A4204D00E
:10053000CE216848490003F016F96268664B134003
:1005400016D0802051004908C005814210D080217A
:1005500009068A420CD080225203934208D080229E
:100560009203934204D09E215A48FF3103F0FBF8D6
:100570001823A2689A4304D0CF215648490003F0BB
:10058000F2F82023E2689A4304D0A0215148FF31B9
:1005900003F0E9F82369013B012B04D9D0214D4830
:1005A000490003F0E0F8661CF37F012B04D9A22177
:1005B0004848FF3103F0D7F8A31C0193DB7F012BE0
:1005C00004D9D1214348490003F0CDF8434BA26A36
:1005D0001A4204D0A4213F48FF3103F0C4F8636AF3
:1005E0004022190018009143803290430FD080229E
:1005F000520091420BD08032934208D0C13BFF3B66
:10060000012B04D9D2213348490003F0ACF8230070
:100610002C331B78012B04D9A6212E48FF3103F07F
:10062000A2F804226369043B934304D0D3212948F0
:10063000490003F098F82A4B226B1A4204D0A821F3
:100640002448FF3103F08FF8A369012B04D9D4218A
:100650002048490003F087F8636B012B04D9AA21D5
:100660001C48FF3103F07FF8E369012B04D9D52141
:100670001848490003F077F8A36B072B04D9AC2185
:100680001448FF3103F06FF8E36B012B04D9D62136
:100690001048490003F067F8636D002B06D1220073
:1006A0005032A3652000137003F074F8636DDB060D
:1006B00004D4042322689168194013D01023626D7A
:1006C000012013436365002350342370FEBDC046F0
:1006D00000240140C83C0008FFFFF3FFFFF3FFFFC9
:1006E000FFEFFFFF636D6A48184002230343636511
:1006F000032390681840674B012802D1176807420E
:100700001AD180256768ED0578004008A84204D01A
:1007100080200006874200D09EE01069800080089B
:1007200010611069074317611827D068A568B8439E
:10073000D060D0682843D0601A68574802401A60D9
:10074000626B1868520602431A60802322685B05B8
:100750009068184202D1906803439360D3684F4871
:1007600003402069D360D768E368022800D10421E0
:10077000256BF07F2B43A5693B43AE03E56933430B
:10078000EE0333434603334326002C363678760097
:1007900033430B43C221D360636AFF318B4204D0E1
:1007A000A56AD1682B430B43D360A31CDB7F012BCD
:1007B00006D100285CD18023D1685B020B43D36053
:1007C000E36B012B5CD1216C1C2905D8344ACA404B
:1007D0009343DBB2002B04D093213248890002F00E
:1007E000C2FF636C60221900914309D0802907D0B1
:1007F00080225200934203D02B492A4802F0B3FFD3
:100800002A4BA26C1A4203D02949264802F0ABFFBA
:10081000226828491369606C0B401361236C1169CD
:100820000343A06C03430B431361012311690B4382
:1008300013610721236800205A698A435A615A6963
:10084000A16B0A435A610322A065636D93431A00AA
:1008500001231343636539E71069174D8000800851
:100860001061186828401860186807431F605BE72C
:100870002021606D01436165A16D0B43A3659FE776
:10088000012113690B42D4D013698B43D0E7C046D2
:10089000FDFEFFFF08270140FFFFFFFD1902FEFFDD
:1008A00011111111C83C00084D020000FFFDFFFFAF
:1008B0004E02000003FCFFFFFFFFC3FF70477047BD
:1008C00070470000444B026870B504009A4203D0A0
:1008D0004249434802F047FF651CEB7F012B03D9D7
:1008E00040493F4802F03FFF04226369043B9343C1
:1008F00003D03D493A4802F036FF042223681968C4
:10090000114202D05968114206D1082219681142D9
:100910002BD05968114228D0626DD20604D48022AF
:10092000616D92000A436265C022D96812011142CA
:1009300012D1EA7F002A0FD11A6812070CD59A68E3
:1009400052073FD40C215A688A435A60636D274A84
:100950001A400123134363652000FFF7AFFFA3692B
:10096000012B02D00C2223681A60802523681A68A4
:100970002A420CD05B682B4209D08023626D5B0257
:10098000134363652000FFF79AFF23681D60102260
:1009900023681968114214D05968114211D0226B92
:1009A000002A02D0DA68D20708D50222A16D200001
:1009B0000A43A26510221A60FFF782FF1022236803
:1009C0001A6070BD2023626D134363650123A26D1D
:1009D0001343A365C0E7C04600240140940600000D
:1009E000C83C00089506000096060000FEFEFFFFCA
:1009F0004B4B026870B505000C009A4203D0494980
:100A0000494802F0B0FE2368012B36D0474A934292
:100A100033D0474A934230D0464A93422DD0464A7B
:100A200093422AD0454A934227D0454A934224D044
:100A3000444A934221D0444A93421ED0434A9342AF
:100A40001BD0434A934218D0424A934215D0424A9F
:100A5000934212D0414A93420FD0414A93420CD064
:100A6000404A934209D0404A934206D03F4A9342BB
:100A700003D03F492C4802F076FE63683D4A9B183C
:100A8000012B04D9F0212848C90002F06CFE2E0089
:100A9000503633780220012B0BD02A680138936836
:100AA00030705B0706D520236A6D13436B65002306
:100AB000337070BD8020304965682368C0028D4264
:100AC0001BD0956A5903490B29439162034208D010
:100AD00080232A4A1B0411680A200B431360FFF786
:100AE00007FD23689B0305D58023244ADB03116897
:100AF0000B43136000203070DBE7916A5C03640BEA
:100B0000A1439162034204D01C491D480A68024077
:100B10000A609B03EED5194A1A4913680B40E8E7AF
:100B2000002401407E070000C83C000802000004C9
:100B3000040000080800000C100000102000001441
:100B4000400000188000001C00010020000200246A
:100B5000000400280008002C0010003000200034A1
:100B6000004000380080003C0000044800000244BF
:100B70007F07000000F0FFFF011000000827014080
:100B8000FFFF7FFFFFFFBFFF70B504000D000329CB
:100B900003D98721164802F0E6FDA901002C14DADA
:100BA0000F23E4B22340083B124A9B089B009B188A
:100BB000032214409440FC3215000A40A540A24094
:100BC000D869A8430243DA6170BD0325A3082C400D
:100BD000AC40FC352E00084A9B009B18C022A64062
:100BE0002940A14092009858B04301439950EBE747
:100BF000003D000800ED00E000E100E010B5041E3B
:100C000003DA9721044802F0AEFD1F231C401E3B6F
:100C1000A340024A136010BD003D000800E100E05F
:100C2000094A431E012093420DD8C021074A0848B3
:100C30005360036A09061B021B0A0B430362002070
:100C40000723906013607047FFFFFF0010E000E093
:100C500000ED00E0F8B504000120002C00D19EE07A
:100C600023684F4A934215D04E4A934212D04E4ABF
:100C700093420FD04D4A93420CD04D4A934209D033
:100C80004C4A934206D04C4A934203D096214B489B
:100C900002F069FD63680A2B06D90C3B032B03D9CC
:100CA0009721464802F05FFDA36810221900914386
:100CB00007D08022D201934203D098213F4802F00E
:100CC00052FD4023E2689A4303D099213B4802F049
:100CD0004AFD802322699A4303D09A21374802F0C3
:100CE00042FD6369364A134207D080229200934244
:100CF00003D09B21314802F036FDA369314A1342EB
:100D000007D080221201934203D09C212B4802F08D
:100D10002AFD2023E2699A4303D09D21274802F04F
:100D200022FD294B226A1A4203D09E21234802F059
:100D30001AFD2568254B1421E818FFF7F9F9244B13
:100D4000800023640223A21D6064D3772E68214BA8
:100D5000A1681E40E36827690B433B4367693B4337
:100D6000A7693B43E7693B43276A3B4333432B6017
:100D70008023DB0199420CD01C2528400D3D854085
:100D800015490B68AB430B6063680D6883402B43C8
:100D90000B6000200123E0630534D377E077F8BDD2
:100DA000080002401C0002403000024044000240A3
:100DB000580002406C000240800002403B3D0008A9
:100DC000FFFEFFFFFFFBFFFFFFCFFFFFF8FFFDBFB1
:100DD000000002400F80FFFFA8000240F7B5150099
:100DE0001F005A1E234B04000E009A4204D9AB2167
:100DF0002148490002F0B7FC631DDA7F0220012A76
:100E00002AD00122DA77A21D9446D27F0021D2B2E5
:100E1000012A2CD16346D8772368E16319681A3018
:100E200091431960216C0191616C084082400199E5
:100E30004A60A2685F602168102A0ED19D60DE6062
:100E4000226B002A0CD00E22186802431A6001237C
:100E500000200A6813430B60FEBD9E60DD60EFE773
:100E600004201A6882431A6018680A22EDE7D977CD
:100E7000F2E7C046FEFF00003B3D000870B5841D50
:100E8000E37F022B04D00423C363033B180070BD2F
:100E90000E210368456C1A688A431A60012219689A
:100EA000914319601C232B4015009D40016C431D8C
:100EB0004D60E2770024826BDC771300A242E5D01C
:100EC00090472300E2E7F8B51C220427466C016C2A
:100ED00032403E0096400D6803681C682E420DD0DB
:100EE0003C420BD01A68920602D41A68BA431A60C0
:100EF000036B4E60002B19D0984717E002273E0085
:100F000096402E4213D03C4211D01A68920606D465
:100F10000A241A68A2431A600122831DDA7700228C
:100F2000431D4E60DA77C36A9342E5D1F8BD0826C7
:100F3000370097403D42F9D03442F7D00E251C6867
:100F4000AC431C6001231C009440821D4C60C363B1
:100F5000D3770022431DDA77436BE5E74B68F7B59B
:100F600004000D00032B12D91A00113A012A0ED9E0
:100F7000854A86491A40521885490A4207D0854A4F
:100F80009B180B4203D0AE21834802F0ECFBAB6808
:100F9000022B03D9AF21804802F0E5FBA023DB053B
:100FA0009C420BD07D4B9C4208D07D4B9C4205D08F
:100FB0007C4B9C4202D07C4B9C4207D12B689AB25E
:100FC000002A03D0794A134393420DD0784B9C42B8
:100FD00006D12B68774A134202D01343934203D0C1
:100FE000B0216D4802F0BFFB00272B681A00FA40C1
:100FF00000D1F7BD0122BA4001921A40009200D1FF
:10100000C0E010226B689343022B2CD1A023DB0598
:101010009C4212D0614B9C420FD0614B9C420CD041
:10102000604B9C4209D0604B9C4206D0604B9C4276
:1010300003D0BF21584802F096FB2B69072B03D938
:10104000C021554802F08FFB07220F203A40920042
:101050009040FB089B00E318196A8143286990407F
:1010600002000A431A6210226B687E009343013B20
:10107000012B19D8EB68032B03D9CE21464802F087
:1010800072FB0322B240A368012193431A00EB686C
:10109000B3401343A3606268019B9A436B681B09CA
:1010A0000B40BB401343636003239C46B34061463F
:1010B0006A68DB431140B140206818400143216059
:1010C000E1681940AB68B3400B43E360D30059D5E6
:1010D000012039490F264B6B03436046384080009E
:1010E00086404B63354BB9088900C9188B68B343F8
:1010F000A0260193F6050023B44214D0274E0133F5
:10110000B44210D0264E0133B4420CD0254E634673
:10111000B44208D0244E0133B44204D0284BE31823
:101120005E1EB34105338340019803438B6025491C
:10113000009B0E68D84333439C46D30302D433004C
:1011400003409C4663460B604E68009B33439C46BD
:10115000930302D4330003409C4663464B608E6881
:10116000009B33439C46D30202D4330003409C4689
:1011700063468B60CE68009B3343920201D43300F8
:101180000340CB60013730E7FFFFDFFF0000EFEFE8
:10119000FFFFFEFF0000DFEF733D0008000400507A
:1011A00000080050000C005000100050FFFF00002D
:1011B000001C005003060000001002400000014027
:1011C00000E4FFAF00040140A02370B5DB0504007C
:1011D0000D00160098420BD0154B984208D0154BC5
:1011E000984205D0144B984202D0144B98420AD131
:1011F000002D12D0012E16D99E211148FF3102F088
:10120000B2FAA56170BD0F4B984206D10E4B194240
:1012100003D01A000A439A42ECD0CE210848490074
:1012200002F0A1FAE6E7002EEBD1A562EAE7C0469C
:101230000004005000080050000C00500010005046
:10124000733D0008001C00500306000070470000BA
:10125000044B10B55A69104202D05861FFF7F6FFEF
:1012600010BDC0460004014070B504000120002CF0
:1012700000D18AE023684A4A93420AD0494A9342FD
:1012800007D0494A934204D0EF214848490002F070
:101290006AFA474BA2689A4204D9E0214348FF31D9
:1012A00002F061FAE368013B012B04D9F0213F48C9
:1012B000490002F058FA3F4E2369334204D0E2213C
:1012C0003A48FF3102F04FFA6369FF2B04D9F1214C
:1012D0003648490002F047FAA369072B04D9E421F4
:1012E0003248FF3102F03FFA334BE2691A4204D030
:1012F000F2212E48490002F036FA304B226A1A4297
:1013000004D0E6212948FF3102F02DFA25004135AD
:101310002B78DBB2002B05D1220040321370200065
:1013200002F08AFA242301212B702368A0681A682E
:101330008A431A606168224A0A401A619A68E16821
:1013400032409A60012921D18022120202439A6020
:1013500059681C4A00200A435A60DA6861691640DD
:101360002269DE600A43A16909020A43DA60216A40
:10137000E2690A431A60012219680A431A602023AD
:1013800060642B7020634234207070BD842212028E
:1013900002439A600229DBD1802212015A60D7E70A
:1013A000005400400058004000780040AC3D000868
:1013B000FF030000FF7FFFFFFFFFF7FFFFFFFDFFC1
:1013C000FFFFFFF000800002F8B51D4A0368060029
:1013D0000C00934209D01B4A934206D01A4A93420A
:1013E00003D06421194802F0BEF9194D2C4203D0F4
:1013F0006521164802F0B7F941239C46B444634680
:101400001A780220D2B2202A19D1370040373B780F
:10141000012B14D0242361460B7001213368186816
:1014200088431860186805401D60186804431C60F4
:10143000186801431960002063461A703870F8BDBF
:10144000005400400058004000780040E43D00088F
:10145000FFEFFFFFF8B51B4A036805000C0093423D
:1014600009D0194A934206D0184A934203D09221D8
:10147000174802F078F90F2C03D99321144802F091
:1014800072F92E00413632780220D2B2202A17D1CA
:10149000290040310B78012B12D0242333702B68A4
:1014A00001381D680B4F85431D601D6824023D40B7
:1014B0002C431C601C6820431860002032700870A8
:1014C000F8BDC0460054004000580040007800407D
:1014D000E43D0008FFF0FFFF0C22184B10B5D9685F
:1014E0000A40082A26D00C2A06D0042A1AD11B68E2
:1014F000DB0621D4124810BD8A021248120F825C0A
:101500000902D868890F0131C00304D50E48504341
:10151000FEF70EFEEFE71B68DB0601D50B48F6E78A
:101520000748F4E780205B6800021B045B0F01336F
:101530009840E0E70448DEE70448DCE7001002409A
:101540000024F400903F000800127A0000093D00DA
:10155000F0B5050087B0002802D1012007B0F0BD2A
:101560000368002B06D09B0604D1B021C748490070
:1015700002F0F9F80C238027C54C7F02E2681A407C
:10158000E36801921F402B68DB0764D42B689B073C
:1015900000D5C0E02B68DB0643D5019B002B00D0B3
:1015A0002DE123689B0502D5EB69002BD5D02B6A72
:1015B000FF2B04D98021B548890002F0D4F86B6A6A
:1015C000B44AB5491A400B420BD0802109028A4225
:1015D00007D0C0221202934203D0B049AB4802F0B8
:1015E000C2F86268AE496B6A0A401A436260616879
:1015F0002A6A0902090A12060A43626080225B0B0A
:10160000013312029A401300E16800200A06A5493E
:10161000120F8A5CD340A44A1360FEF71FFF002814
:101620009CD12B681B0700D55BE12B685B0700D5BD
:1016300084E12B689B0600D5FDE1AB6A022B04D93F
:10164000BA219248890002F08EF8AB6A002B00D0D4
:101650002BE2002082E76B68944E334208D0A02230
:10166000D202934204D06A218848FF3102F07BF80D
:10167000019B082B03D00C2B08D1002F06D0236828
:101680009B0383D56B68002B80D166E780216B6854
:1016900049028B4214D1226813432360FEF712FFE4
:1016A0000600802223689202134200D06EE7FEF704
:1016B00009FFFA23801B9B009842F2D903204DE7D3
:1016C000A022D202934208D180232268DB02134376
:1016D000236022680A432260E0E722681640266001
:1016E00022680A400592059A714922680A402260E0
:1016F000002BD3D1FEF7E6FE06008022236892027B
:10170000134200D142E7FEF7DDFEFA23801B9B0067
:101710009842F2D9D2E72023EA689A43012A06D9EF
:10172000092A04D0CE215948490002F01CF82B693F
:101730001F2B04D99E215548FF3102F014F82022B6
:10174000EB68134203D02168934311432160019A4F
:10175000042A03D00C2A24D1002F22D12268520758
:1017600002D5002B00D1F8E661682A6951481202BF
:1017700001400A430921626022688A4313432360BF
:10178000FFF7AAFEE368474A1B061B0FD35CD8404D
:10179000454B18600020FEF761FE002800D1F9E6F5
:1017A000DCE6002B19D00921226804278A43134361
:1017B0002360FEF787FE060023683B4207D062687D
:1017C0002B693C491B020A4013436360E2E6FEF7C3
:1017D00079FE801B0228EFD970E7012223680427D5
:1017E00093432360FEF76EFE060023683B4200D160
:1017F000D0E6FEF767FE801B0228F6D95EE7EB69AC
:10180000012B04D986212148890001F0ACFFEB6946
:10181000002B53D0802322685B0013432360FEF724
:1018200051FE80270600BF0023683B4227D02B6A69
:10183000FF2B04D98B211548890001F094FF6B6AB6
:10184000144A15491A400B420BD0802109028A42E2
:1018500007D0C0221202934203D017490B4801F06F
:1018600082FF63680E4A13406A6A134363606268CA
:101870002B6A12021B06120A13436360D1E6FEF7BD
:1018800021FE801B0228CFD918E7C0461F3E000862
:1018900000100240FFDFFFFFFF9FFFFF010200007B
:1018A000FF1FFFFF783F000800000020FFFFFEFF42
:1018B000FFFFFBFFFFE0FFFF2D0200002368C04A8F
:1018C000802713402360FEF7FDFD0600BF0023685C
:1018D0003B4200D1A5E6FEF7F5FD801B0228F6D9B4
:1018E000ECE66B69012B03D9B649B74801F03BFF21
:1018F0006A690123002A10D0226D02271343236551
:10190000FEF7E0FD0600236D3B4200D08DE6FEF7BA
:10191000D9FD801B0228F6D9D0E6226D02279A4312
:101920002265FEF7CFFD0600236D3B4200D17CE629
:10193000FEF7C8FD801B0228F6D9BFE6AB68A04AB7
:10194000134207D0A022D200934203D09F499E4861
:1019500001F009FF80230021A26B5B0502911A426E
:1019600004D1A26B1343A363012302938027984EF3
:101970007F0033683B4208D08022AB68520093421C
:1019800013D1226D1343236534E033683B43336046
:10199000FEF798FD039033683B42EDD1FEF792FDD0
:1019A000039BC01A6428F6D988E6002B16D1236D54
:1019B000834A802713402365236D864ABF00134066
:1019C0002365FEF77FFD0600236D3B422AD0FEF71C
:1019D00079FD814B801B9842F6D96FE6A021C900A2
:1019E0008B420DD18023216DDB000B432365236DDA
:1019F0001A432265FEF766FD80270600BF000EE051
:101A0000236D6F4A13402365236D724A1340BAE772
:101A1000FEF758FD704B801B984200D94EE6236DAF
:101A20003B42F5D0029B012B00D002E6A36B6B4A30
:101A30001340A363FDE5AB69012B03D968496248F4
:101A400001F091FEA9690123664A002918D0A16816
:101A500002271943A160616B0B4363638023116A02
:101A60009B010B431362FEF72DFD0600A3683B426A
:101A700000D0E2E5FEF726FD801B0228F6D91DE620
:101A8000A16802279943A160136A57490B4013626A
:101A9000FEF718FD0600A3683B4200D1CDE5FEF736
:101AA00011FD801B0228F6D908E6019A0C2A6AD09B
:101AB0004E4E022B55D14E4BEA6A1A4203D04D4985
:101AC000414801F050FE2A6B4B4B13400BD0802154
:101AD00049038B4207D080239B039A4203D0474996
:101AE000394801F040FE80216A6B454BC903134021
:101AF0008B4207D080231B049A4203D041493248CD
:101B000001F031FE23681E402660FEF7DBFC8026D4
:101B10000700B604236833421DD1296BEB6AE268E3
:101B20000B4339490A4013436A6B80251343E36032
:101B3000802322685B0413432360FEF7C3FC060086
:101B4000AD0423682B4200D083E5FEF7BBFC801B6D
:101B50000228F6D9B2E5FEF7B5FCC01B0228D9D998
:101B6000ACE5236880251E402660FEF7ABFC06002E
:101B7000AD0423682B4200D16BE5FEF7A3FC801B6C
:101B80000228F6D99AE51800012B00D1E6E480225C
:101B9000E368E96A52021A4001208A4200D0DDE47B
:101BA000F022296B92031A408A4200D0D6E4C0206A
:101BB00000040340686B181A431E9841C0B2CDE47C
:101BC000FFFEFFFF4B0200001F3E000877020000EF
:101BD00000700040FFFBFFFF88130000FFFFFFEFD6
:101BE000BE02000000000140FFDFFFFFFFFFFFFE1D
:101BF000FFFFFEFFF1020000FFFFF3FFF202000013
:101C0000FFFF7FFFF3020000FFFF02FFF7B50400B4
:101C10000F00002801D10120FEBD03681B0703D17E
:101C20007C497D4801F09FFD012F03D97B497A480B
:101C300001F099FD01227A4D2B6813409F423AD85A
:101C400023689B0740D42368DB075FD401232A68FD
:101C50001A40974200D2BBE02368724D5B0700D563
:101C6000BEE023681B0718D523696F4A13420DD0C5
:101C7000A0216E4AC9001A408A4207D0C022D20071
:101C8000934203D06A49644801F06DFDEA68236914
:101C90006849DB000A401343EB60FFF71DFCEB686B
:101CA000654A1B061B0FD35CD840644B18600020AC
:101CB000FEF7D4FBB0E72B6893433B432B602B68C4
:101CC00013409F42A7D1BBE7A3688022190091432C
:101CD00014D020221900914390290FD040221900DE
:101CE0009143A0290AD0102219009143C02905D0A0
:101CF000F02B03D05249484801F035FDF021494A04
:101D0000D3688B43A1680B43D3609CE76368032BC4
:101D100003D94C49404801F026FD424E62683368C1
:101D2000022A1CD19B0300D475E70321F3688B437F
:101D30001343F360FEF7C6FB63680190022B1BD1CF
:101D40000C22F3681340082B00D17FE7FEF7BAFBA3
:101D5000019BC01A3C4B9842F2D903205CE7032A4E
:101D600002D19B01E1D456E7012A02D15B07DCD402
:101D700051E79B05D9D44EE7032B0DD10C22F36814
:101D80001340934200D161E7FEF79CFB019BC01A10
:101D90002D4B9842F2D9E0E7012B13D00C22F368C7
:101DA000134200D152E7FEF78DFB019BC01A264B70
:101DB0009842F3D9D1E7FEF785FB019BC01A224B6D
:101DC0009842CAD80C22F3681340042BF3D13DE7A4
:101DD0002A689A432A602A681A4200D01BE73BE728
:101DE000E368114A13420DD0A021104AC9001A40DD
:101DF0008A4207D0C022D200934203D0134906483A
:101E000001F0B1FCEB68124A1340E2681343EB6047
:101E100027E7C046660300001F3E00086703000076
:101E20000020024000100240FFFBFFFFFFFDFFFF0C
:101E3000F1030000FFC7FFFF783F0008000000200B
:101E40007E0300008503000088130000EA03000001
:101E5000FFF8FFFF044B054ADB685B055B0FD35CB3
:101E6000034A1068D840704700100240883F0008BD
:101E700000000020044B054ADB689B045B0FD35C29
:101E8000034A1068D840704700100240883F00089D
:101E900000000020F7B5934B026804009A4203D972
:101EA0006721914801F05FFC23689B064DD563686C
:101EB0008E4A13420DD098218D4A49031A408A4216
:101EC00007D08C229203934203D07321864801F0FD
:101ED0004AFC80230021874D5B05AA6B00911A42C2
:101EE00004D1AA6B1343AB63012300938027824E76
:101EF0007F0033683B4200D1AFE0C022C021286898
:101F000063689203104089021A40904200D0B6E004
:101F10002A6D0A4000D0BDE06168C0230A009B0220
:101F20001A409A4207D12B6874480340C0208003AE
:101F300001400B432B602B6D1A43009B2A65012B3C
:101F400003D1AB6B6E4A1340AB632368DB070DD53F
:101F5000A368032B03D9DE21634801F004FC0321AD
:101F6000644AD36C8B43A1680B43D36423689B07FB
:101F70000ED50C23E2689A4303D0E9215A4801F0B8
:101F8000F2FB0C215B4AD36C8B43E1680B43D364B7
:101F900023685B070DD55B4D23692B4203D0F321EA
:101FA000514801F0E0FB534A2169D36C2B400B43AD
:101FB000D36423681B0712D56369534A134207D0C1
:101FC00080229201934203D0FD21474801F0CBFBD0
:101FD000484A4E49D36C0B4061690B43D364236874
:101FE000DB0513D5A3694A4A134208D08022920226
:101FF000934204D084213C48490001F0B4FB3D4A9F
:102000003A49D36C0B40A1690B43D36423685B0648
:102010000ED5404D236A2B4204D014213248FF31A3
:1020200001F0A1FB334A216AD36C2B400B43D364EC
:10203000236800201B0621D5374DE3692B4204D0CD
:102040001C212948FF3101F08EFB2A4AE169D36C3B
:1020500000202B400B43D36410E033683B433360D4
:10206000FEF730FA019033683B4200D045E7FEF7B7
:1020700029FA019BC01A6428F5D90320FEBD1A0075
:102080000A408A4200D043E72A680120920300D424
:102090003EE7F3E70B409A4200D13DE723689B06F9
:1020A00000D439E780232A6D286D1B0303432B6579
:1020B0002B6D0E491948114003402B652965D30546
:1020C00000D429E7FEF7FEF980270600BF002B6D3C
:1020D0003B4200D020E7FEF7F5F9114B801B9842F8
:1020E000F5D9CAE7FF010000573E0008FFFFFCFFDB
:1020F000FFFFDFFF0010024000700040FFFFCFFF36
:10210000FFFFFFEFFFF3FFFFFFEFFFFFFFCFFFFF3B
:10211000FFFFFEFFFFFFFFFBFFFFF3FFFFFFF7FFE8
:1021200088130000A0210268F8B5D36804008B432F
:10213000D360FEF7C7F9FA2706002025BF00236801
:10214000DB682B4201D00020F8BDFEF7BBF9801BF5
:10215000B842F4D90320F7E7F8B540240368050036
:10216000DA68224201D00020F8BD01225242DA6032
:10217000FEF7A8F9FA270600BF002B68DB682342A8
:10218000F1D1FEF79FF9801BB842F6D90320EBE7A7
:1021900070B504000125002859D0494B02689A42C5
:1021A00003D0E921474801F0DEFA402362689A43F0
:1021B00003D0EA21434801F0D6FAA3687F2B03D964
:1021C000EB21404801F0CFFA3F4BE2689A4203D935
:1021D000EC213C4801F0C7FA3C4B22691A4203D07B
:1021E000ED21384801F0BFFA022362699A4303D017
:1021F000EE21344801F0B7FA354BA2691A4203D0F8
:10220000EF21304801F0AFFAE369012B03D9F02147
:102210002C4801F0A8FAA61CF37FDBB2002B04D1F6
:10222000621CD377200001F03BFC0223CA22F37723
:10223000236820005A62773A5A62FFF78DFF2368BD
:10224000051E06D0FF225A620423F37701252800D9
:1022500070BD9A681F4920690A409A60626899684F
:102260000243A06902430A439A60E26860691A6106
:10227000A268196912040A4380211A61DA688A4344
:10228000DA60DA6C7D398A43DA64E269D96C024338
:102290000A43DA649B689B060CD42000FFF742FFD8
:1022A000002807D0FF22236801345A620423F37701
:1022B000E577CBE7FF2223685A620123F377C6E76D
:1022C00000280040923E0008FF7F0000FFFF9FFFB4
:1022D000FFFFEFFFBFFF8FFFF0B585B00400029155
:1022E0000192042A05D9062A03D03E493E4801F04E
:1022F0003AFA3E4B029A9A4203D93D493A4801F0D4
:1023000032FA0223661CF27F1800012A58D00122FB
:10231000E718F277FB772368C9325A62773A5A6234
:102320009B685B0535D4236832499A680A409A60F5
:10233000D968314AC9B20A43DA60FEF7C3F803909C
:1023400004222368DD6815403CD00721029A5A61B7
:102350009A688A439A609A6801991143996080212A
:10236000264A490310680843106090680143916051
:1023700080229968D2010A439A6080229968D2002B
:102380000A439A60FF2200205A620123FB77F0770C
:1023900016E0FEF797F8042503902368DB682B42CC
:1023A000C1D0FEF78FF8039BC01AFA239B00984216
:1023B000F3D9FF22236803205A620023F877F377CA
:1023C00005B0F0BDFEF77EF8039BC01AFA239B0010
:1023D0009842B5D9FF22032023685A62F877F5772F
:1023E000EEE7C04611040000CA3E0008FFFF0000EF
:1023F00012040000FFFBFFFF7FFBFFFF0004014012
:1024000070470000036810B5DB6804005B0507D562
:10241000FFF7F6FF2168064BCA68D2B21343CB60C0
:102420008022044B52035A6101230234E37710BD2A
:102430007FFBFFFF00040140036807491A680A4058
:102440001A609A682331FF318A439A602023836798
:10245000002303667047C046DFFEFFFF436F10B5E1
:10246000212B0DD1010052310A880368002A08D1BE
:1024700080211A688A431A60402219680A431A6048
:1024800010BDC46C22880234D205D20D9A62C46495
:102490000B88013B9BB20B80F2E7436F10B5212BF9
:1024A0000DD1010052310A880368002A08D1802129
:1024B0001A688A431A60402219680A431A6010BDDC
:1024C000C26C147801329C62C2640B88013B9BB2DF
:1024D0000B80F4E770B5446F03000220202C30D14C
:1024E000013800292DD0002A2BD080249D6864015A
:1024F000A54204D11C69002C01D1014221D11C004C
:10250000703426780220012E1BD001382070D96447
:10251000190050310A804A800022DA675A66213257
:102520005A678022520195420CD11A69002A09D1BA
:10253000054A5A661A6880230020116820700B43F0
:10254000136070BD014AF4E75D2400089B24000875
:1025500070B5846F03000220202C41D1013800297E
:102560003ED0002A3CD080259C686D01AC4204D14D
:102570001D69002D01D1014232D11D0070352E7828
:102580000220012E2CD001382870596519005831CD
:102590000A804A80802000211A00196640015C32BE
:1025A000844220D1196900291BD1184911800022C9
:1025B0000121DA6722329A671A68906801439160B4
:1025C000802149018C421ED1196900291BD1104973
:1025D00019669023002011685B000B43287013607C
:1025E00070BDFF21E2E7002C04D119690029F8D061
:1025F0007F21DBE7802040058442D7D1196900297B
:10260000F6D03F21D2E70349E2E7C046FF010000D0
:1026100001280008A1270008F8B51300426F040044
:102620000220202A35D10138002932D0002B30D0A9
:102630008022A5685201954204D12269002A01D165
:10264000014226D12600703632780220012A20D09D
:1026500022000125503235700027E1641380538039
:102660002122A06EE7676267B84213D00E4A8763E3
:10267000C2620E4A02630E4A426322682832FEF7A3
:10268000ADFBB84206D010232800E367DB18377093
:102690006367F8BD4022002023681A629968921887
:1026A0000A4330709A60F4E765270008972700080E
:1026B000AB280008F8B51300826F05000220202A1D
:1026C00037D10138002934D0002B32D08022AC68B9
:1026D0005201944204D12A69002A01D1014228D131
:1026E0002E00703632780220012A22D02A000124DE
:1026F000583234700027696513802222E86EEF6734
:10270000AA67B84216D0144A8763C262134A0263AA
:10271000134A42632A68243294460A006146FEF74F
:102720005DFBB84206D010232000EB67DB18377042
:102730006B67F8BD802200202B685200196830704A
:102740000A431A60012299680A439A6040229968F4
:102750000A439A60EDE7C0465D2800089F280008FC
:10276000AB2800082021036810B51B68826A0B4063
:102770000CD1110052310B80802113689A688A4372
:102780009A60402219680A431A6010BD100000F0D8
:1027900055FDFAE7704710B5806AFFF7FBFF10BDE3
:1027A000826F10B50368222A23D102005C325B6A73
:1027B00012881340426D13700200436D5A32013388
:1027C00043651388013B9BB2138013889BB2002B97
:1027D0000ED10268094C11682140116091682334C0
:1027E000FF34A143916020220366826700F038FD28
:1027F00010BD082299690A439A61F9E7DFFEFFFFDD
:10280000826F10B50368222A21D104005C34596A12
:102810002488426D214011800100023242655A3104
:102820000A88013A92B20A800A8892B2002A0DD12F
:102830001968094C2140196099682334FF34A14379
:10284000996020230266836700F00AFD10BD08220C
:1028500099690A439A61F9E7DFFEFFFF0368826A1C
:1028600020201B6810B5034011D111005A310B8094
:102870001368094C19682140196099680334FF34C2
:10288000A143996099683F34A14399609067100013
:1028900000F0E6FC10BDC046FFFEFFFF704710B51C
:1028A000806AFFF7FBFF10BD704710B5846A23688C
:1028B000626FA16F986800060BD5212A09D122000A
:1028C0000020523210801A68C03082431A602022E1
:1028D00062679B685B0608D5222906D12300002287
:1028E0005A331A802000FFF7A7FD1023E26F200063
:1028F0001343E367FFF7D8FF10BD0000F8B5036886
:102900000400DA6918689E6811070AD120210A427A
:1029100000D16AE0084268D0236E2000002B5AD113
:102920005AE0012135000D4003D190277F00384245
:102930005BD00A4205D0C60503D51962E66F314364
:10294000E16702210A4206D0002D04D01962E66F29
:1029500049183143E16704210A4206D0002D04D012
:102960001962E66F02393143E167110708D5810624
:1029700001D4002D04D008211962E36F1943E167E7
:10298000E36F002B28D020231A4206D0184204D02F
:10299000236E002B01D0200098472368E56F9B68C9
:1029A00020005B0602D408231D401AD0FFF744FD27
:1029B000402123689A680A420FD09A68E06E8A43E1
:1029C0009A60002809D01A4B8363FEF757FA002853
:1029D00002D0E06E836B9847F8BD2000FFF764FFDC
:1029E000FAE7FFF761FFE567F6E7802149030A424E
:1029F00006D0750204D51962200000F0D9FBEBE780
:102A000080210A4203D0084201D0636E85E740214D
:102A10000A42E1D00842DFD01A6820008A431A60D7
:102A2000202363670023636600F008FCD4E7C046F8
:102A3000352A0008806A0023020010B55A3213803C
:102A4000083A1380FFF730FF10BD0000F8B5426868
:102A5000AF4B04009A4203D9AE49AF4800F083FE61
:102A60008022A3685205934206D0AC4A134203D099
:102A7000AB49A94800F077FEAA4D2268E368AA4E48
:102A8000AA4260D1A94A134203D0A949A24800F042
:102A90006AFE2369A74A134207D0C022D20093429C
:102AA00003D0A5499C4800F05EFE63690C22190022
:102AB000914301D1002B03D1A049974800F053FE68
:102AC0009F4BA2691A4203D09E49934800F04BFEE7
:102AD0009D4BE2691A4203D09C498F4800F043FEA7
:102AE0002769A26823683A4367691868E1693A432D
:102AF000974F0A43384002431A605A68A06916404B
:102B0000E26816435E60AB4201D0226A10439A68C5
:102B1000904E324002439A608F4A934220D1032262
:102B20008E4BDB6C13408E4AD05C80231B02994293
:102B300000D1DEE0082833D8FDF7E6FA9BA2A532E3
:102B4000C0323232C300334204D0AD217248090191
:102B500000F009FE834B226A1A429AD0824995E717
:102B6000824A934205D10C227C4BDB6C1340804A95
:102B7000DAE7804A934200D1AFE07F4A934200D126
:102B8000ABE0AB4200D0A1E0C0218020734A090134
:102B9000D36CC0000B40834238D003D8002B0AD03E
:102BA00001250DE08020000183420ED08B42F7D139
:102BB000802000020DE0FFF74DF90025A84208D162
:102BC0000023280023666366F8BD1368DB0620D562
:102BD0004F48032263685A438242E1D81A03824273
:102BE000DED30027020E01025E0889197A4108002F
:102BF00011001A003B00FDF727FB604BC218604B29
:102C00009A42CDD823683D00D860D9E7FEF764FC2E
:102C1000D3E75C48DDE7FFF72DF964E010254F4B63
:102C200061681A684808154006D0574BC018FDF770
:102C30007FFA002583B204E0544BC018FDF778FA00
:102C400083B21900524810398142A9D80F211800C7
:102C50001B0788435B0F21680343CB60B0E7FEF797
:102C60003BFC40E06368580880235B023EE00023A1
:102C7000E7E7FFF7EFF863685B08C01861680BE0EF
:102C8000FFF7F8F8F7E71025344B61681A68480831
:102C9000154006D01E4BC018FDF74AFA002583B236
:102CA00004E0384BC018FDF743FA83B219003848E6
:102CB0001039814200D973E72168CEE7FEF70CFC9A
:102CC000D9E76368580880231B02D6E780230125D3
:102CD0001B029942CBD00023E8E780231B029942D4
:102CE000C7D1FFF7B7F8636840005B08C018616898
:102CF0009DE7082800D953E7FDF710FAF3FF8DFF91
:102D000090FF52FFB1FF52FF52FF52FFB4FFC04687
:102D100000093D00C80A0000163F0008FFEFFFFF52
:102D2000C90A000000480040FFCFFFFFFFDFFFFFA0
:102D3000CC0A0000FFFBFFFFD40A0000D50A000008
:102D4000FFFCFFFFD60A0000FF7FFFFFD70A00004D
:102D5000F369FFEFFFF4FFFF00380140001002406D
:102D6000053F0008FFF7FFFFD10A000000440040C4
:102D7000093F0008004C00400050004000FDFFFFEC
:102D8000FFFC0F000024F40000127A000048E80164
:102D9000EFFF0000436A70B50400FF2B03D95549CB
:102DA000554800F0E0FC636ADB070DD5534DA36A7C
:102DB0002B4203D05249504800F0D5FC2268A16A4A
:102DC00053682B400B435360636A9B070DD54D4DF1
:102DD000E36A2B4203D04C49474800F0C4FC226808
:102DE000E16A53682B400B435360636A5B070DD560
:102DF000464D236B2B4203D045493F4800F0B3FCBE
:102E00002268216B53682B400B435360636A1B0796
:102E10000DD5404D636B2B4203D03F49364800F03F
:102E2000A2FC2268616B53682B400B435360636ABA
:102E3000DB060DD5394DA36B2B4203D038492E4804
:102E400000F091FC2268A16B93682B400B439360C8
:102E5000636A9B060DD5334DE36B2B4203D0324999
:102E6000254800F080FC2268E16B93682B400B43FF
:102E70009360636A5B062AD523682C4A934206D086
:102E80002B4A934203D02B491B4800F06CFC2A4D7F
:102E9000236C2B4203D02949174800F064FC2168B9
:102EA000226C4B682B4013434B6080235B039A4298
:102EB0000DD1234D636C2B4203D022490E4800F004
:102EC00052FC2268616C53682B400B435360636A69
:102ED0001B060DD51C4DA36C2B4203D01B49064885
:102EE00000F041FC2268A16C53682B400B435360F7
:102EF00070BDC0469A0B0000163F0008FFFFFDFFA3
:102F00009F0B0000FFFFFEFFA60B0000FFFFFBFF73
:102F1000AD0B0000FF7FFFFFB40B0000FFEFFFFFD2
:102F2000BB0B0000FFDFFFFFC20B000000380140B9
:102F300000440040C90B0000FFFFEFFFCA0B000078
:102F4000FFFF9FFFCF0B0000FFFFF7FFD70B000035
:102F5000F8B504000E0015001F002268D369334045
:102F60009B1B59424B41AB4201D000201BE0069B0A
:102F70000133F3D0FDF7A6FA069BC01B834201D3B1
:102F8000002BEAD1236808491A6803200A401A6016
:102F90009A68A331FF318A439A6020236367A3674D
:102FA000002370342370F8BD5FFEFFFFF0B587B0DB
:102FB0000593436F04000D0017000220202B49D118
:102FC0000138002946D0002A44D08023A2685B0142
:102FD0009A4204D12369002B01D101423AD1230046
:102FE00070331A780220012A34D0012200261A7088
:102FF0002123E6676367FDF765FA230050331F80DE
:10300000023303931F808023A26804905B019A42DD
:1030100004D12369B34201D12E001D002300523395
:103020001A88059B92B20093049B002A0AD1402182
:103030002000FFF78DFF00280BD120237034636040
:10304000207007E0002280212000FFF781FF002888
:1030500002D0032007B0F0BD2268002D0BD13388C9
:103060000236DB05DB0D9362039B039A1B88013B51
:103070009BB21380D2E72B7801359362F4E700000E
:1030800073B500260400C667FDF71CFA2368050027
:103090001B681B0715D423681B685B070AD58021B2
:1030A0000E4B00220093C9032B002000FFF750FFB6
:1030B000002811D1202300206367A367703420709B
:1030C0000BE08021054B32000093890303002000B0
:1030D000FFF73EFF0028DED0032076BDFFFFFF0193
:1030E00010B5041E01D1012010BD81690368294A71
:1030F00000293ED0934210D0274A93420DD0274A50
:1031000093420AD0264A934207D0264A934204D0DB
:103110003021FF31244800F026FB636F002B05D1DE
:10312000220070321370200000F0B8FB242301212C
:1031300022686367136820008B431360FFF786FCE7
:103140000128D0D0636A002B02D02000FFF722FEB6
:10315000236816495A6820000A402A215A609A6852
:103160008A439A60012219680A431A60FFF788FFB0
:10317000BAE79342D1D0084A9342CED0074A93424D
:10318000CBD0074A9342C8D0064A9342C5D09A2171
:103190004900BFE70038014000440040004C0040B7
:1031A0000050004000480040163F0008FFB7FFFFF6
:1031B0007047000010B59CB0382200210EA800F026
:1031C00067FD14220021684600F062FD24220021E0
:1031D00005A800F05DFD1749174A0B6800241A4046
:1031E00080231B0113430B6018230E93173B13938B
:1031F0001593A0230EA81B02179316941894FEF79C
:10320000A7F90F23210068460093019402940394C8
:103210000494FEF7FBFC2F230593802305A89B0253
:103220000794089409940A940693FEF733FE1CB0A1
:1032300010BDC04600700040FFE7FFFF0368054A6D
:10324000934203D10122044B1A7002E0034A9342D5
:10325000F8D0704700480040240000200050004093
:103260000C4B026810B59A4213D10B4C012221007D
:103270000A48FFF76DF92278002A0AD00849094860
:103280000B68C25401330B600D2A02D1064B0C3A75
:103290001A7010BD00480040CC020020240100201C
:1032A000200000202500002024000020F0B5B3B04D
:1032B0006A46204B00AF1C680021E31DDB08DB00E1
:1032C000D31A9D46C822380000F0E2FC1A4968462D
:1032D00000F0E6FC194DA2B269462800FFF79CF900
:1032E000174E3378012BFCD10024C8203470FDF731
:1032F000EFF82800C8223900FFF7DCF96F65C82015
:103300005A352C80FDF7E4F83B5D5AB2002A0ADDFD
:103310000C4901220C480B70FFF7DCF83378012BC5
:10332000FCD1002333700134C82CEDD1BD4633B03D
:10333000F0BDC0462000002025000020A401002090
:1033400024000020A402002024010020F0B58BB04E
:10335000FDF79CF8FFF72EFF1422002105A800F0CE
:1033600097FC04228021DB4E0125F36AA020134341
:10337000F362F36AC00513400193019BF26A0024D3
:103380000A43F2620222F36A03270B400293029B74
:10339000F36A60392B43F362F36A2B400393039B78
:1033A000F36A1343F362F36A134004932A00049B05
:1033B000FDF70AFF2A00C849C848FDF705FF9F210D
:1033C000A02000220902C005FDF7FEFE00222021F8
:1033D000C248FDF7F9FE802305A99B01C04805936B
:1033E00006940794FDF7BAFDC02305A91B02BC484B
:1033F000059306970794FDF7B1FD05A9B948059710
:1034000006970794FDF7AAFDA020202305A9C00573
:103410000593089706950794FDF7A0FDA020C0230B
:1034200005A9C005059306940794FDF797FDAE4BDB
:1034300005A90593AD4BA94806930794FDF78EFDAA
:10344000042305A90593A5480D3306930795089411
:10345000FDF784FDA64B05A9A048059306950794A2
:103460000894FDF77BFD8023A0205B00059305A950
:10347000FE3BC005079308930695FDF76FFD9E235D
:10348000A0201B0205A9C005059306950794089482
:10349000FDF764FD220021000520FDF775FB0520E6
:1034A000FDF7ACFB220021000720FDF76DFB072094
:1034B000FDF7A4FB336B22002B433363336B2100F6
:1034C0002B4000930920009BFDF75EFB0920FDF7D0
:1034D00095FB220021000A20FDF756FB0A20FDF78C
:1034E0008DFB0822210005A800F0D2FB814E824B03
:1034F00030003360C0231B0673607319DC77B31C84
:10350000DC77C223FF33736233002C331C70042337
:10351000F4637361B460B4633561F460B4623463BE
:10352000B4617463F461FCF7F9FF744B05A905936A
:10353000802330005B010693FDF75AFA704B05A912
:1035400030000593FDF754FA6E4E6F4B3000336038
:10355000E123DB007360B460F56034617461B461D1
:10356000F4613462FDF780FE21003000FDF72CFF8E
:1035700021003000FDF76EFF644E654B0937336064
:10358000962330009B0173607761B460F46034610E
:10359000B46134627462FFF7A3FD5E485E4B47611D
:1035A000036096239B0143608460C460046184616E
:1035B000C46104624462FFF793FD5848584B476169
:1035C000036096239B0143608460C460046184614E
:1035D000C46104624462FFF783FD5248524B476165
:1035E0000360E1235B0243608460C4600461846122
:1035F000C46104624462FFF773FD4C484C4B476161
:10360000036096239B0143608460C460046184610D
:10361000C46104624462FFF763FD464F464B3800C5
:103620003B607F23BB608033FB607C603C617C61DE
:10363000BC61FC61FEF7ACFD042229003800FEF7F6
:103640004BFE0A233D491A003000FFF7AFFC8021F2
:10365000A0202A00C900C005FDF7B6FDFA208000B1
:10366000FCF736FF0A23092235493000FFF79EFC9C
:103670002A0004211948FDF7A7FD3248FCF728FF6E
:103680000A23092230493000FFF790FC2A0020214C
:103690001248FDF799FD2D48FCF71AFF0A2309226D
:1036A0002B493000FFF782FC01222A493000FEF747
:1036B0004FFF294B1A78012AFCD100241C70FFF718
:1036C000F5FD64222100254800F0E2FA244B1C603D
:1036D000EAE7C0460010024004C0000000040050A9
:1036E00000080050001C00500330000000001110C2
:1036F00020C00000600400200024014010000010E1
:1037000000000448900000200054004024010020E4
:1037100000480040240200200038014050030020EF
:1037200000440040D0020020004C0040A4010020D2
:1037300000500040A8020020002800404F3F000831
:103740005A3F0008B80B0000643F00081027000033
:103750006E3F0008CC02002024000020250000203D
:1037600020000020704770470122094B10B5596BAB
:1037700004200A435A638022996B52050A439A63D4
:1037800000221100FDF700FA0420FDF737FA10BD02
:103790000010024030B5050087B01422002101A8B6
:1037A00000F076FA204B2A689A423AD180221F4BC9
:1037B0009200596BA0200A4301215A63DA6AC005BE
:1037C0000A43DA62DB6A0B400093009B102301A9D5
:1037D00001930D3B0293FDF7C1FB154C154B2000E7
:1037E000236000236360A360E36080332361803340
:1037F000636180231B01A3612023E36180235B01BC
:103800002362FDF727FA002801D0FFF7ABFF002263
:103810000C20EC641100A562FDF7B6F90C20FDF751
:10382000EDF907B030BDC046002401400010024051
:10383000D00300200800024010B5040086B0142216
:10384000002101A800F024FA114B22689A421CD1F1
:103850000221104C1048E26A0A43E262E36A0B401C
:103860000093009BC0239B00019312230293113B02
:1038700003935B18049301A901330593FDF76EFBD5
:103880008023A26B9B031343A36306B010BDC04605
:1038900000540040001002400004005030B5050004
:1038A0008BB01422002105A800F0F2F92B68714AB0
:1038B000934223D18022704BD202996B6F480A4306
:1038C0009A630222D96A1143D962DB6A05A91340BF
:1038D0000093009BC0231B0105930323089301332E
:1038E00006920993FDF73AFB00221D201100FDF717
:1038F0004BF91D20FDF782F90BB030BD604A9342B1
:103900001DD180225C4BD201596B5C480A435A633B
:103910000222D96A1143D962DB6A05A913400193D7
:10392000019BC0230593BD3B06920893FDF716FB50
:1039300000221B201100FDF727F91B20DAE7514A6E
:10394000934221D180224C4B9202996BA0200A43D2
:1039500001219A63DA6AC0050A43DA62DB6A0B4026
:103960000293029B0C2305930A3B06935B18089372
:103970005B1805A90993FDF7F1FA00221C2011003C
:10398000FDF702F91C20B5E73F4A934220D180227F
:10399000394B1203996BA0200A4301219A63DA6A1A
:1039A000C0050A43DA62DB6A02220B400393039BE1
:1039B000032305A905930893DB1806920993FDF7E5
:1039C000CDFA00220E201100FDF7DEF80E2091E75F
:1039D0002E4A934200D08FE78022274B5203996BE7
:1039E00026480A439A630222D96A1143D962DB6AE4
:1039F00005A913400493049B18230593153B0893D2
:103A0000033306920993FDF7A9FA214C214B80223A
:103A100023600D2363600023A360E3606361A361FF
:103A2000E361C02320009B0122612362FDF712F9AC
:103A3000002801D0FFF796FE174BEC66A562174CE5
:103A4000802223600D2363600333A3600023E360BF
:103A50006361A361E361C02320009B0122612362B3
:103A6000FDF7F8F8002801D0FFF77CFEAC66A562F0
:103A7000A7E7C04600480040001002400004005084
:103A80000038014000440040004C0040005000401D
:103A9000DC0000201C00024030000240180400201E
:103AA000094B026810B59A420DD18023074ADB0208
:103AB000116D02200B43136500221100FDF764F81D
:103AC0000220FDF79BF810BD0028004000100240C6
:103AD0007047FEE77047704710B5FCF7EBFC10BD70
:103AE00010B50248FEF78EFC10BDC046A8020020AB
:103AF000704710B50120FDF7ABFB0220FDF7A8FBD6
:103B000010BD802010B54001FDF7A2FB8020800190
:103B1000FDF79EFB10BD000010B50248FDF7D3F97C
:103B200010BDC046D003002010B50348FDF7CBF907
:103B30000248FDF7C8F910BDDC0000201804002081
:103B400010B50248FCF7BEFE10BDC0466004002060
:103B500010B50348FEF7D2FE0248FEF7CFFE10BDB7
:103B6000D0020020A401002010B50248FEF7C6FED6
:103B700010BDC0462402002010B50248FEF7BEFE6C
:103B800010BDC0465003002010B50248FEF7B6FE37
:103B900010BDC046240100208022104B520019683D
:103BA0000A431A60DA680E490A40DA601A680D4959
:103BB0000A4001211A609A688A439A601A680A4981
:103BC0000A401A60DA6809490A40DA6000221A617C
:103BD0008022074B12059A607047C04600100240D1
:103BE0000C40FF88F6FFF6FEFFFFFBFFFFFF02FF22
:103BF00000ED00E00D488546002103E00C4B5B58CA
:103C0000435004310B480C4B42189A42F6D30B4AEE
:103C100002E0002313600432094B9A42F9D3FFF704
:103C2000BBFF00F011F8FFF791FBFEE7005000200A
:103C3000AC3F000800000020040000200400002029
:103C4000BC040020FEE7000070B500260C4D0D4CB2
:103C5000641BA410A64209D1002600F029F80A4DE1
:103C60000A4C641BA410A64205D170BDB300EB58EA
:103C700098470136EEE7B300EB5898470136F2E774
:103C8000A43F0008A43F0008A43F0008A83F000884
:103C900003008218934200D1704719700133F9E78D
:103CA000031C0A7801311A700133002AF9D17047D8
:103CB000F8B5C046F8BC08BC9E467047F8B5C0468B
:083CC000F8BC08BC9E467047E9
:103CC8002E2E5C447269766572735C53544D3332A0
:103CD8004C3078785F48414C5F4472697665725C15
:103CE8005372635C73746D33326C3078785F6861DB
:103CF8006C5F6164632E63002E2E5C447269766586
:103D080072735C53544D33324C3078785F48414C71
:103D18005F4472697665725C5372635C73746D3369
:103D2800326C3078785F68616C5F636F7274657845
:103D38002E63002E2E5C447269766572735C535450
:103D48004D33324C3078785F48414C5F4472697625
:103D580065725C5372635C73746D33326C3078785F
:103D68005F68616C5F646D612E63002E2E5C447227
:103D780069766572735C53544D33324C3078785F92
:103D880048414C5F4472697665725C5372635C7338
:103D9800746D33326C3078785F68616C5F67706916
:103DA8006F2E63002E2E5C447269766572735C53C5
:103DB800544D33324C3078785F48414C5F447269D7
:103DC8007665725C5372635C73746D33326C3078F1
:103DD800785F68616C5F6932632E63002E2E5C44E5
:103DE8007269766572735C53544D33324C3078780F
:103DF8005F48414C5F4472697665725C5372635CDC
:103E080073746D33326C3078785F68616C5F6932D7
:103E1800635F65782E63002E2E5C44726976657246
:103E2800735C53544D33324C3078785F48414C5F63
:103E38004472697665725C5372635C73746D333275
:103E48006C3078785F68616C5F7263632E63002EF4
:103E58002E5C447269766572735C53544D33324CF0
:103E68003078785F48414C5F4472697665725C537C
:103E780072635C73746D33326C3078785F68616C30
:103E88005F7263635F65782E63002E2E5C447269EF
:103E9800766572735C53544D33324C3078785F4892
:103EA800414C5F4472697665725C5372635C7374EB
:103EB8006D33326C3078785F68616C5F7274632E32
:103EC80063002E2E5C447269766572735C53544DA0
:103ED80033324C3078785F48414C5F44726976657C
:103EE800725C5372635C73746D33326C3078785FD4
:103EF80068616C5F7274635F65782E630001040209
:103F080008001010100410101002101010082E2EA7
:103F18005C447269766572735C53544D33324C302D
:103F280078785F48414C5F4472697665725C537279
:103F3800635C73746D33326C3078785F68616C5F82
:103F4800756172742E63000D0A454E41424C450D51
:103F58000A000D0A52455345540D0A000D0A504FE8
:103F68005745520D0A000D0A53544152540D0A0088
:103F78000000000000000000010203040607080911
:103F88000000000001020304030406080C101820B6
:043F980030000000F5
:083F9C00ECC2FF7F01000000F0
:043FA400E900000828
:043FA800C10000084C
:043FAC0000002000F1
:0400000508003BF5BF
:00000001FF
